{
  "_format": "hh3-artifact-1",
  "contractName": "Identity",
  "sourceName": "contracts/Identity.sol",
  "abi": [
    {
      "inputs": [],
      "stateMutability": "nonpayable",
      "type": "constructor"
    },
    {
      "anonymous": false,
      "inputs": [
        {
          "indexed": true,
          "internalType": "address",
          "name": "user",
          "type": "address"
        },
        {
          "indexed": false,
          "internalType": "string",
          "name": "identityHash",
          "type": "string"
        }
      ],
      "name": "IdentityRegistered",
      "type": "event"
    },
    {
      "anonymous": false,
      "inputs": [
        {
          "indexed": true,
          "internalType": "address",
          "name": "user",
          "type": "address"
        },
        {
          "indexed": true,
          "internalType": "address",
          "name": "revokedBy",
          "type": "address"
        }
      ],
      "name": "IdentityRevoked",
      "type": "event"
    },
    {
      "anonymous": false,
      "inputs": [
        {
          "indexed": true,
          "internalType": "address",
          "name": "user",
          "type": "address"
        },
        {
          "indexed": true,
          "internalType": "address",
          "name": "verifiedBy",
          "type": "address"
        }
      ],
      "name": "IdentityVerified",
      "type": "event"
    },
    {
      "inputs": [],
      "name": "admin",
      "outputs": [
        {
          "internalType": "address",
          "name": "",
          "type": "address"
        }
      ],
      "stateMutability": "view",
      "type": "function"
    },
    {
      "inputs": [
        {
          "internalType": "address",
          "name": "user",
          "type": "address"
        }
      ],
      "name": "getIdentityHash",
      "outputs": [
        {
          "internalType": "string",
          "name": "",
          "type": "string"
        }
      ],
      "stateMutability": "view",
      "type": "function"
    },
    {
      "inputs": [
        {
          "internalType": "address",
          "name": "user",
          "type": "address"
        }
      ],
      "name": "getStatus",
      "outputs": [
        {
          "internalType": "bool",
          "name": "",
          "type": "bool"
        }
      ],
      "stateMutability": "view",
      "type": "function"
    },
    {
      "inputs": [
        {
          "internalType": "address",
          "name": "",
          "type": "address"
        }
      ],
      "name": "identityHash",
      "outputs": [
        {
          "internalType": "string",
          "name": "",
          "type": "string"
        }
      ],
      "stateMutability": "view",
      "type": "function"
    },
    {
      "inputs": [],
      "name": "isAdmin",
      "outputs": [
        {
          "internalType": "bool",
          "name": "",
          "type": "bool"
        }
      ],
      "stateMutability": "view",
      "type": "function"
    },
    {
      "inputs": [
        {
          "internalType": "string",
          "name": "_hash",
          "type": "string"
        }
      ],
      "name": "registerIdentity",
      "outputs": [],
      "stateMutability": "nonpayable",
      "type": "function"
    },
    {
      "inputs": [
        {
          "internalType": "address",
          "name": "user",
          "type": "address"
        }
      ],
      "name": "revokeVerification",
      "outputs": [],
      "stateMutability": "nonpayable",
      "type": "function"
    },
    {
      "inputs": [
        {
          "internalType": "address",
          "name": "",
          "type": "address"
        }
      ],
      "name": "verified",
      "outputs": [
        {
          "internalType": "bool",
          "name": "",
          "type": "bool"
        }
      ],
      "stateMutability": "view",
      "type": "function"
    },
    {
      "inputs": [
        {
          "internalType": "address",
          "name": "user",
          "type": "address"
        }
      ],
      "name": "verifyIdentity",
      "outputs": [],
      "stateMutability": "nonpayable",
      "type": "function"
    }
  ],
  "bytecode": "0x608060405234801561001057600080fd5b50600080546001600160a01b03191633179055610892806100326000396000f3fe608060405234801561001057600080fd5b50600436106100935760003560e01c806392849ca41161006657806392849ca414610107578063b5b90fd91461011c578063b6db75a01461012f578063e998d2fa14610137578063f851a4401461014a57610093565b80630db065f41461009857806320cae202146100c157806330ccebb5146100e157806358af7112146100f4575b600080fd5b6100ab6100a63660046105c0565b61015f565b6040516100b891906106a3565b60405180910390f35b6100d46100cf3660046105c0565b610174565b6040516100b891906106ae565b6100ab6100ef3660046105c0565b61020e565b6100d46101023660046105c0565b61022c565b61011a6101153660046105ee565b6102d8565b005b61011a61012a3660046105c0565b610375565b6100ab610455565b61011a6101453660046105c0565b610466565b610152610518565b6040516100b8919061068f565b60026020526000908152604090205460ff1681565b6001602052600090815260409020805461018d9061080b565b80601f01602080910402602001604051908101604052809291908181526020018280546101b99061080b565b80156102065780601f106101db57610100808354040283529160200191610206565b820191906000526020600020905b8154815290600101906020018083116101e957829003601f168201915b505050505081565b6001600160a01b031660009081526002602052604090205460ff1690565b6001600160a01b03811660009081526001602052604090208054606091906102539061080b565b80601f016020809104026020016040519081016040528092919081815260200182805461027f9061080b565b80156102cc5780601f106102a1576101008083540402835291602001916102cc565b820191906000526020600020905b8154815290600101906020018083116102af57829003601f168201915b50505050509050919050565b60008151116103025760405162461bcd60e51b81526004016102f9906107d4565b60405180910390fd5b336000908152600160209081526040909120825161032292840190610527565b503360008181526002602052604090819020805460ff19169055517f9b6805eb7a1bee8a797c79c5f2a39a182f3d37f8b8cce5ec42371000c8115dfd9061036a9084906106ae565b60405180910390a250565b6000546001600160a01b0316331461039f5760405162461bcd60e51b81526004016102f990610792565b6001600160a01b0381166103c55760405162461bcd60e51b81526004016102f990610736565b6001600160a01b038116600090815260016020526040812080546103e89061080b565b9050116104075760405162461bcd60e51b81526004016102f990610701565b6001600160a01b038116600081815260026020526040808220805460ff19166001179055513392917f25e4589528aa4c1dcd5c91ab0cc06e99d962229fb9e54162702032772a1655a091a350565b6000546001600160a01b0316331490565b6000546001600160a01b031633146104905760405162461bcd60e51b81526004016102f990610792565b6001600160a01b03811660009081526002602052604090205460ff1615156001146104cd5760405162461bcd60e51b81526004016102f990610764565b6001600160a01b038116600081815260026020526040808220805460ff19169055513392917fd7533bea9fdce549b772c9bf708932fcf1560edaa0c94df3f90e65e75eb7565791a350565b6000546001600160a01b031681565b8280546105339061080b565b90600052602060002090601f016020900481019282610555576000855561059b565b82601f1061056e57805160ff191683800117855561059b565b8280016001018555821561059b579182015b8281111561059b578251825591602001919060010190610580565b506105a79291506105ab565b5090565b5b808211156105a757600081556001016105ac565b6000602082840312156105d1578081fd5b81356001600160a01b03811681146105e7578182fd5b9392505050565b60006020808385031215610600578182fd5b823567ffffffffffffffff80821115610617578384fd5b818501915085601f83011261062a578384fd5b81358181111561063c5761063c610846565b604051601f8201601f191681018501838111828210171561065f5761065f610846565b6040528181528382018501881015610675578586fd5b818585018683013790810190930193909352509392505050565b6001600160a01b0391909116815260200190565b901515815260200190565b6000602080835283518082850152825b818110156106da578581018301518582016040015282016106be565b818111156106eb5783604083870101525b50601f01601f1916929092016040019392505050565b6020808252818101527f5573657220686173206e6f742072656769737465726564206964656e74697479604082015260600190565b602080825260149082015273496e76616c69642075736572206164647265737360601b604082015260600190565b602080825260149082015273155cd95c881a5cc81b9bdd081d995c9a599a595960621b604082015260600190565b60208082526022908201527f4f6e6c792061646d696e2063616e20706572666f726d2074686973206163746960408201526137b760f11b606082015260800190565b6020808252601d908201527f4964656e7469747920686173682063616e6e6f7420626520656d707479000000604082015260600190565b60028104600182168061081f57607f821691505b6020821081141561084057634e487b7160e01b600052602260045260246000fd5b50919050565b634e487b7160e01b600052604160045260246000fdfea26469706673582212203f0272950362f06c8d13b6f761631f29241b4696a1e711fed30ee6c5637e28c564736f6c63430008000033",
  "linkReferences": {},
  "deployedLinkReferences": {},
  "immutableReferences": {},
  "inputSourceName": "project/contracts/Identity.sol",
  "buildInfoId": "solc-0_8_0-d9829bc2baacc621eef66ab00ee8c04bb21afbeb"
}